{
    "_format": "hh-sol-artifact-1",
    "contractName": "DigiTalk",
    "sourceName": "contracts/DigiTalk.sol",
    "abi": [
        {
            "inputs": [],
            "stateMutability": "nonpayable",
            "type": "constructor"
        },
        {
            "anonymous": false,
            "inputs": [
                {
                    "indexed": false,
                    "internalType": "uint256",
                    "name": "id",
                    "type": "uint256"
                },
                {
                    "indexed": false,
                    "internalType": "string",
                    "name": "description",
                    "type": "string"
                },
                {
                    "indexed": false,
                    "internalType": "address payable",
                    "name": "auther",
                    "type": "address"
                }
            ],
            "name": "Post",
            "type": "event"
        },
        {
            "inputs": [
                {
                    "internalType": "string",
                    "name": "_description",
                    "type": "string"
                }
            ],
            "name": "createPost",
            "outputs": [],
            "stateMutability": "nonpayable",
            "type": "function"
        },
        {
            "inputs": [],
            "name": "getAllPosts",
            "outputs": [
                {
                    "components": [
                        {
                            "internalType": "uint256",
                            "name": "id",
                            "type": "uint256"
                        },
                        {
                            "internalType": "string",
                            "name": "description",
                            "type": "string"
                        },
                        {
                            "internalType": "address payable",
                            "name": "auther",
                            "type": "address"
                        }
                    ],
                    "internalType": "struct DigiTalk.PostStruct[]",
                    "name": "",
                    "type": "tuple[]"
                }
            ],
            "stateMutability": "view",
            "type": "function"
        },
        {
            "inputs": [],
            "name": "getPostsCount",
            "outputs": [
                {
                    "internalType": "uint256",
                    "name": "",
                    "type": "uint256"
                }
            ],
            "stateMutability": "view",
            "type": "function"
        },
        {
            "inputs": [],
            "name": "name",
            "outputs": [
                {
                    "internalType": "string",
                    "name": "",
                    "type": "string"
                }
            ],
            "stateMutability": "view",
            "type": "function"
        }
    ],
    "bytecode": "0x60806040523480156200001157600080fd5b506040518060400160405280600881526020017f4469676954616c6b00000000000000000000000000000000000000000000000081525060009081620000589190620002e1565b506000600181905550620003c8565b600081519050919050565b7f4e487b7100000000000000000000000000000000000000000000000000000000600052604160045260246000fd5b7f4e487b7100000000000000000000000000000000000000000000000000000000600052602260045260246000fd5b60006002820490506001821680620000e957607f821691505b602082108103620000ff57620000fe620000a1565b5b50919050565b60008190508160005260206000209050919050565b60006020601f8301049050919050565b600082821b905092915050565b600060088302620001697fffffffffffffffffffffffffffffffffffffffffffffffffffffffffffffffff826200012a565b6200017586836200012a565b95508019841693508086168417925050509392505050565b6000819050919050565b6000819050919050565b6000620001c2620001bc620001b6846200018d565b62000197565b6200018d565b9050919050565b6000819050919050565b620001de83620001a1565b620001f6620001ed82620001c9565b84845462000137565b825550505050565b600090565b6200020d620001fe565b6200021a818484620001d3565b505050565b5b8181101562000242576200023660008262000203565b60018101905062000220565b5050565b601f82111562000291576200025b8162000105565b62000266846200011a565b8101602085101562000276578190505b6200028e62000285856200011a565b8301826200021f565b50505b505050565b600082821c905092915050565b6000620002b66000198460080262000296565b1980831691505092915050565b6000620002d18383620002a3565b9150826002028217905092915050565b620002ec8262000067565b67ffffffffffffffff81111562000308576200030762000072565b5b620003148254620000d0565b6200032182828562000246565b600060209050601f83116001811462000359576000841562000344578287015190505b620003508582620002c3565b865550620003c0565b601f198416620003698662000105565b60005b8281101562000393578489015182556001820191506020850194506020810190506200036c565b86831015620003b35784890151620003af601f891682620002a3565b8355505b6001600288020188555050505b505050505050565b610bed80620003d86000396000f3fe608060405234801561001057600080fd5b506004361061004c5760003560e01c806306fdde0314610051578063305611001461006f578063836248821461008d578063c7303c61146100ab575b600080fd5b6100596100c7565b604051610066919061045f565b60405180910390f35b610077610155565b6040516100849190610637565b60405180910390f35b6100956102a6565b6040516100a29190610668565b60405180910390f35b6100c560048036038101906100c091906107cc565b6102b0565b005b600080546100d490610844565b80601f016020809104026020016040519081016040528092919081815260200182805461010090610844565b801561014d5780601f106101225761010080835404028352916020019161014d565b820191906000526020600020905b81548152906001019060200180831161013057829003601f168201915b505050505081565b60606002805480602002602001604051908101604052809291908181526020016000905b8282101561029d5783829060005260206000209060030201604051806060016040529081600082015481526020016001820180546101b690610844565b80601f01602080910402602001604051908101604052809291908181526020018280546101e290610844565b801561022f5780601f106102045761010080835404028352916020019161022f565b820191906000526020600020905b81548152906001019060200180831161021257829003601f168201915b505050505081526020016002820160009054906101000a900473ffffffffffffffffffffffffffffffffffffffff1673ffffffffffffffffffffffffffffffffffffffff1673ffffffffffffffffffffffffffffffffffffffff168152505081526020019060010190610179565b50505050905090565b6000600154905090565b600160008154809291906102c3906108a4565b91905055506002604051806060016040528060015481526020018381526020013373ffffffffffffffffffffffffffffffffffffffff1681525090806001815401808255809150506001900390600052602060002090600302016000909190919091506000820151816000015560208201518160010190816103459190610a98565b5060408201518160020160006101000a81548173ffffffffffffffffffffffffffffffffffffffff021916908373ffffffffffffffffffffffffffffffffffffffff16021790555050507f50ca0ca9d8016e84887f2d13ca13094a48400bb0890428a032c7939f5121e93660015482336040516103c493929190610b79565b60405180910390a150565b600081519050919050565b600082825260208201905092915050565b60005b838110156104095780820151818401526020810190506103ee565b60008484015250505050565b6000601f19601f8301169050919050565b6000610431826103cf565b61043b81856103da565b935061044b8185602086016103eb565b61045481610415565b840191505092915050565b600060208201905081810360008301526104798184610426565b905092915050565b600081519050919050565b600082825260208201905092915050565b6000819050602082019050919050565b6000819050919050565b6104c0816104ad565b82525050565b600082825260208201905092915050565b60006104e2826103cf565b6104ec81856104c6565b93506104fc8185602086016103eb565b61050581610415565b840191505092915050565b600073ffffffffffffffffffffffffffffffffffffffff82169050919050565b600061053b82610510565b9050919050565b61054b81610530565b82525050565b600060608301600083015161056960008601826104b7565b506020830151848203602086015261058182826104d7565b91505060408301516105966040860182610542565b508091505092915050565b60006105ad8383610551565b905092915050565b6000602082019050919050565b60006105cd82610481565b6105d7818561048c565b9350836020820285016105e98561049d565b8060005b85811015610625578484038952815161060685826105a1565b9450610611836105b5565b925060208a019950506001810190506105ed565b50829750879550505050505092915050565b6000602082019050818103600083015261065181846105c2565b905092915050565b610662816104ad565b82525050565b600060208201905061067d6000830184610659565b92915050565b6000604051905090565b600080fd5b600080fd5b600080fd5b600080fd5b7f4e487b7100000000000000000000000000000000000000000000000000000000600052604160045260246000fd5b6106d982610415565b810181811067ffffffffffffffff821117156106f8576106f76106a1565b5b80604052505050565b600061070b610683565b905061071782826106d0565b919050565b600067ffffffffffffffff821115610737576107366106a1565b5b61074082610415565b9050602081019050919050565b82818337600083830152505050565b600061076f61076a8461071c565b610701565b90508281526020810184848401111561078b5761078a61069c565b5b61079684828561074d565b509392505050565b600082601f8301126107b3576107b2610697565b5b81356107c384826020860161075c565b91505092915050565b6000602082840312156107e2576107e161068d565b5b600082013567ffffffffffffffff811115610800576107ff610692565b5b61080c8482850161079e565b91505092915050565b7f4e487b7100000000000000000000000000000000000000000000000000000000600052602260045260246000fd5b6000600282049050600182168061085c57607f821691505b60208210810361086f5761086e610815565b5b50919050565b7f4e487b7100000000000000000000000000000000000000000000000000000000600052601160045260246000fd5b60006108af826104ad565b91507fffffffffffffffffffffffffffffffffffffffffffffffffffffffffffffffff82036108e1576108e0610875565b5b600182019050919050565b60008190508160005260206000209050919050565b60006020601f8301049050919050565b600082821b905092915050565b60006008830261094e7fffffffffffffffffffffffffffffffffffffffffffffffffffffffffffffffff82610911565b6109588683610911565b95508019841693508086168417925050509392505050565b6000819050919050565b600061099561099061098b846104ad565b610970565b6104ad565b9050919050565b6000819050919050565b6109af8361097a565b6109c36109bb8261099c565b84845461091e565b825550505050565b600090565b6109d86109cb565b6109e38184846109a6565b505050565b5b81811015610a07576109fc6000826109d0565b6001810190506109e9565b5050565b601f821115610a4c57610a1d816108ec565b610a2684610901565b81016020851015610a35578190505b610a49610a4185610901565b8301826109e8565b50505b505050565b600082821c905092915050565b6000610a6f60001984600802610a51565b1980831691505092915050565b6000610a888383610a5e565b9150826002028217905092915050565b610aa1826103cf565b67ffffffffffffffff811115610aba57610ab96106a1565b5b610ac48254610844565b610acf828285610a0b565b600060209050601f831160018114610b025760008415610af0578287015190505b610afa8582610a7c565b865550610b62565b601f198416610b10866108ec565b60005b82811015610b3857848901518255600182019150602085019450602081019050610b13565b86831015610b555784890151610b51601f891682610a5e565b8355505b6001600288020188555050505b505050505050565b610b7381610530565b82525050565b6000606082019050610b8e6000830186610659565b8181036020830152610ba08185610426565b9050610baf6040830184610b6a565b94935050505056fea264697066735822122008a2f848ba9a03ce55a196eecc36c21a042ef7741992236fd5d8c19d18e4564264736f6c63430008110033",
    "linkReferences": {},
    "deployedLinkReferences": {}
}