{
  "_format": "hh-sol-artifact-1",
  "contractName": "DigiTalk",
  "sourceName": "contracts/DigiTalk.sol",
  "abi": [
    {
      "inputs": [],
      "stateMutability": "nonpayable",
      "type": "constructor"
    },
    {
      "anonymous": false,
      "inputs": [
        {
          "indexed": false,
          "internalType": "uint256",
          "name": "id",
          "type": "uint256"
        },
        {
          "indexed": false,
          "internalType": "uint256",
          "name": "tipAmount",
          "type": "uint256"
        },
        {
          "indexed": false,
          "internalType": "string",
          "name": "description",
          "type": "string"
        },
        {
          "indexed": false,
          "internalType": "string",
          "name": "hash",
          "type": "string"
        },
        {
          "indexed": false,
          "internalType": "string",
          "name": "fileName",
          "type": "string"
        },
        {
          "indexed": false,
          "internalType": "address payable",
          "name": "auther",
          "type": "address"
        }
      ],
      "name": "Post",
      "type": "event"
    },
    {
      "inputs": [
        {
          "internalType": "string",
          "name": "_description",
          "type": "string"
        },
        {
          "internalType": "string",
          "name": "hash",
          "type": "string"
        },
        {
          "internalType": "string",
          "name": "file_name",
          "type": "string"
        }
      ],
      "name": "createPost",
      "outputs": [],
      "stateMutability": "nonpayable",
      "type": "function"
    },
    {
      "inputs": [],
      "name": "getAllPosts",
      "outputs": [
        {
          "components": [
            {
              "internalType": "uint256",
              "name": "id",
              "type": "uint256"
            },
            {
              "internalType": "uint256",
              "name": "tipAmount",
              "type": "uint256"
            },
            {
              "internalType": "string",
              "name": "description",
              "type": "string"
            },
            {
              "internalType": "string",
              "name": "hash",
              "type": "string"
            },
            {
              "internalType": "string",
              "name": "fileName",
              "type": "string"
            },
            {
              "internalType": "address payable",
              "name": "auther",
              "type": "address"
            }
          ],
          "internalType": "struct DigiTalk.PostStruct[]",
          "name": "",
          "type": "tuple[]"
        }
      ],
      "stateMutability": "view",
      "type": "function"
    },
    {
      "inputs": [],
      "name": "getPostsCount",
      "outputs": [
        {
          "internalType": "uint256",
          "name": "",
          "type": "uint256"
        }
      ],
      "stateMutability": "view",
      "type": "function"
    },
    {
      "inputs": [],
      "name": "name",
      "outputs": [
        {
          "internalType": "string",
          "name": "",
          "type": "string"
        }
      ],
      "stateMutability": "view",
      "type": "function"
    },
    {
      "inputs": [
        {
          "internalType": "uint256",
          "name": "_id",
          "type": "uint256"
        }
      ],
      "name": "tipOwner",
      "outputs": [],
      "stateMutability": "payable",
      "type": "function"
    }
  ],
  "bytecode": "0x60806040523480156200001157600080fd5b506040518060400160405280600881526020017f4469676954616c6b00000000000000000000000000000000000000000000000081525060009081620000589190620002e1565b506000600181905550620003c8565b600081519050919050565b7f4e487b7100000000000000000000000000000000000000000000000000000000600052604160045260246000fd5b7f4e487b7100000000000000000000000000000000000000000000000000000000600052602260045260246000fd5b60006002820490506001821680620000e957607f821691505b602082108103620000ff57620000fe620000a1565b5b50919050565b60008190508160005260206000209050919050565b60006020601f8301049050919050565b600082821b905092915050565b600060088302620001697fffffffffffffffffffffffffffffffffffffffffffffffffffffffffffffffff826200012a565b6200017586836200012a565b95508019841693508086168417925050509392505050565b6000819050919050565b6000819050919050565b6000620001c2620001bc620001b6846200018d565b62000197565b6200018d565b9050919050565b6000819050919050565b620001de83620001a1565b620001f6620001ed82620001c9565b84845462000137565b825550505050565b600090565b6200020d620001fe565b6200021a818484620001d3565b505050565b5b8181101562000242576200023660008262000203565b60018101905062000220565b5050565b601f82111562000291576200025b8162000105565b62000266846200011a565b8101602085101562000276578190505b6200028e62000285856200011a565b8301826200021f565b50505b505050565b600082821c905092915050565b6000620002b66000198460080262000296565b1980831691505092915050565b6000620002d18383620002a3565b9150826002028217905092915050565b620002ec8262000067565b67ffffffffffffffff81111562000308576200030762000072565b5b620003148254620000d0565b6200032182828562000246565b600060209050601f83116001811462000359576000841562000344578287015190505b620003508582620002c3565b865550620003c0565b601f198416620003698662000105565b60005b8281101562000393578489015182556001820191506020850194506020810190506200036c565b86831015620003b35784890151620003af601f891682620002a3565b8355505b6001600288020188555050505b505050505050565b61131180620003d86000396000f3fe60806040526004361061004a5760003560e01c806306fdde031461004f578063305611001461007a5780635611b8c8146100a557806383624882146100c1578063e8a4a1eb146100ec575b600080fd5b34801561005b57600080fd5b50610064610115565b60405161007191906109af565b60405180910390f35b34801561008657600080fd5b5061008f6101a3565b60405161009c9190610bce565b60405180910390f35b6100bf60048036038101906100ba9190610c30565b610422565b005b3480156100cd57600080fd5b506100d66107a4565b6040516100e39190610c6c565b60405180910390f35b3480156100f857600080fd5b50610113600480360381019061010e9190610dbc565b6107ae565b005b6000805461012290610e92565b80601f016020809104026020016040519081016040528092919081815260200182805461014e90610e92565b801561019b5780601f106101705761010080835404028352916020019161019b565b820191906000526020600020905b81548152906001019060200180831161017e57829003601f168201915b505050505081565b60606002805480602002602001604051908101604052809291908181526020016000905b8282101561041957838290600052602060002090600602016040518060c0016040529081600082015481526020016001820154815260200160028201805461020e90610e92565b80601f016020809104026020016040519081016040528092919081815260200182805461023a90610e92565b80156102875780601f1061025c57610100808354040283529160200191610287565b820191906000526020600020905b81548152906001019060200180831161026a57829003601f168201915b505050505081526020016003820180546102a090610e92565b80601f01602080910402602001604051908101604052809291908181526020018280546102cc90610e92565b80156103195780601f106102ee57610100808354040283529160200191610319565b820191906000526020600020905b8154815290600101906020018083116102fc57829003601f168201915b5050505050815260200160048201805461033290610e92565b80601f016020809104026020016040519081016040528092919081815260200182805461035e90610e92565b80156103ab5780601f10610380576101008083540402835291602001916103ab565b820191906000526020600020905b81548152906001019060200180831161038e57829003601f168201915b505050505081526020016005820160009054906101000a900473ffffffffffffffffffffffffffffffffffffffff1673ffffffffffffffffffffffffffffffffffffffff1673ffffffffffffffffffffffffffffffffffffffff1681525050815260200190600101906101c7565b50505050905090565b60006002828154811061043857610437610ec3565b5b90600052602060002090600602016040518060c0016040529081600082015481526020016001820154815260200160028201805461047590610e92565b80601f01602080910402602001604051908101604052809291908181526020018280546104a190610e92565b80156104ee5780601f106104c3576101008083540402835291602001916104ee565b820191906000526020600020905b8154815290600101906020018083116104d157829003601f168201915b5050505050815260200160038201805461050790610e92565b80601f016020809104026020016040519081016040528092919081815260200182805461053390610e92565b80156105805780601f1061055557610100808354040283529160200191610580565b820191906000526020600020905b81548152906001019060200180831161056357829003601f168201915b5050505050815260200160048201805461059990610e92565b80601f01602080910402602001604051908101604052809291908181526020018280546105c590610e92565b80156106125780601f106105e757610100808354040283529160200191610612565b820191906000526020600020905b8154815290600101906020018083116105f557829003601f168201915b505050505081526020016005820160009054906101000a900473ffffffffffffffffffffffffffffffffffffffff1673ffffffffffffffffffffffffffffffffffffffff1673ffffffffffffffffffffffffffffffffffffffff1681525050905060008160a0015190508073ffffffffffffffffffffffffffffffffffffffff166108fc349081150290604051600060405180830381858888f193505050501580156106c2573d6000803e3d6000fd5b503482602001516106d39190610f21565b82602001818152505081600284815481106106f1576106f0610ec3565b5b9060005260206000209060060201600082015181600001556020820151816001015560408201518160020190816107289190611101565b50606082015181600301908161073e9190611101565b5060808201518160040190816107549190611101565b5060a08201518160050160006101000a81548173ffffffffffffffffffffffffffffffffffffffff021916908373ffffffffffffffffffffffffffffffffffffffff160217905550905050505050565b6000600154905090565b600160008154809291906107c1906111d3565b919050555060026040518060c001604052806001548152602001600081526020018581526020018481526020018381526020013373ffffffffffffffffffffffffffffffffffffffff168152509080600181540180825580915050600190039060005260206000209060060201600090919091909150600082015181600001556020820151816001015560408201518160020190816108609190611101565b5060608201518160030190816108769190611101565b50608082015181600401908161088c9190611101565b5060a08201518160050160006101000a81548173ffffffffffffffffffffffffffffffffffffffff021916908373ffffffffffffffffffffffffffffffffffffffff16021790555050507f29e6fc4ae04d3d99c9ecaa34805db9899b0121f8c9ec673421ca004dca70c65060015460008585853360405161091296959493929190611265565b60405180910390a1505050565b600081519050919050565b600082825260208201905092915050565b60005b8381101561095957808201518184015260208101905061093e565b60008484015250505050565b6000601f19601f8301169050919050565b60006109818261091f565b61098b818561092a565b935061099b81856020860161093b565b6109a481610965565b840191505092915050565b600060208201905081810360008301526109c98184610976565b905092915050565b600081519050919050565b600082825260208201905092915050565b6000819050602082019050919050565b6000819050919050565b610a10816109fd565b82525050565b600082825260208201905092915050565b6000610a328261091f565b610a3c8185610a16565b9350610a4c81856020860161093b565b610a5581610965565b840191505092915050565b600073ffffffffffffffffffffffffffffffffffffffff82169050919050565b6000610a8b82610a60565b9050919050565b610a9b81610a80565b82525050565b600060c083016000830151610ab96000860182610a07565b506020830151610acc6020860182610a07565b5060408301518482036040860152610ae48282610a27565b91505060608301518482036060860152610afe8282610a27565b91505060808301518482036080860152610b188282610a27565b91505060a0830151610b2d60a0860182610a92565b508091505092915050565b6000610b448383610aa1565b905092915050565b6000602082019050919050565b6000610b64826109d1565b610b6e81856109dc565b935083602082028501610b80856109ed565b8060005b85811015610bbc5784840389528151610b9d8582610b38565b9450610ba883610b4c565b925060208a01995050600181019050610b84565b50829750879550505050505092915050565b60006020820190508181036000830152610be88184610b59565b905092915050565b6000604051905090565b600080fd5b600080fd5b610c0d816109fd565b8114610c1857600080fd5b50565b600081359050610c2a81610c04565b92915050565b600060208284031215610c4657610c45610bfa565b5b6000610c5484828501610c1b565b91505092915050565b610c66816109fd565b82525050565b6000602082019050610c816000830184610c5d565b92915050565b600080fd5b600080fd5b7f4e487b7100000000000000000000000000000000000000000000000000000000600052604160045260246000fd5b610cc982610965565b810181811067ffffffffffffffff82111715610ce857610ce7610c91565b5b80604052505050565b6000610cfb610bf0565b9050610d078282610cc0565b919050565b600067ffffffffffffffff821115610d2757610d26610c91565b5b610d3082610965565b9050602081019050919050565b82818337600083830152505050565b6000610d5f610d5a84610d0c565b610cf1565b905082815260208101848484011115610d7b57610d7a610c8c565b5b610d86848285610d3d565b509392505050565b600082601f830112610da357610da2610c87565b5b8135610db3848260208601610d4c565b91505092915050565b600080600060608486031215610dd557610dd4610bfa565b5b600084013567ffffffffffffffff811115610df357610df2610bff565b5b610dff86828701610d8e565b935050602084013567ffffffffffffffff811115610e2057610e1f610bff565b5b610e2c86828701610d8e565b925050604084013567ffffffffffffffff811115610e4d57610e4c610bff565b5b610e5986828701610d8e565b9150509250925092565b7f4e487b7100000000000000000000000000000000000000000000000000000000600052602260045260246000fd5b60006002820490506001821680610eaa57607f821691505b602082108103610ebd57610ebc610e63565b5b50919050565b7f4e487b7100000000000000000000000000000000000000000000000000000000600052603260045260246000fd5b7f4e487b7100000000000000000000000000000000000000000000000000000000600052601160045260246000fd5b6000610f2c826109fd565b9150610f37836109fd565b9250828201905080821115610f4f57610f4e610ef2565b5b92915050565b60008190508160005260206000209050919050565b60006020601f8301049050919050565b600082821b905092915050565b600060088302610fb77fffffffffffffffffffffffffffffffffffffffffffffffffffffffffffffffff82610f7a565b610fc18683610f7a565b95508019841693508086168417925050509392505050565b6000819050919050565b6000610ffe610ff9610ff4846109fd565b610fd9565b6109fd565b9050919050565b6000819050919050565b61101883610fe3565b61102c61102482611005565b848454610f87565b825550505050565b600090565b611041611034565b61104c81848461100f565b505050565b5b8181101561107057611065600082611039565b600181019050611052565b5050565b601f8211156110b55761108681610f55565b61108f84610f6a565b8101602085101561109e578190505b6110b26110aa85610f6a565b830182611051565b50505b505050565b600082821c905092915050565b60006110d8600019846008026110ba565b1980831691505092915050565b60006110f183836110c7565b9150826002028217905092915050565b61110a8261091f565b67ffffffffffffffff81111561112357611122610c91565b5b61112d8254610e92565b611138828285611074565b600060209050601f83116001811461116b5760008415611159578287015190505b61116385826110e5565b8655506111cb565b601f19841661117986610f55565b60005b828110156111a15784890151825560018201915060208501945060208101905061117c565b868310156111be57848901516111ba601f8916826110c7565b8355505b6001600288020188555050505b505050505050565b60006111de826109fd565b91507fffffffffffffffffffffffffffffffffffffffffffffffffffffffffffffffff82036112105761120f610ef2565b5b600182019050919050565b6000819050919050565b600061124061123b6112368461121b565b610fd9565b6109fd565b9050919050565b61125081611225565b82525050565b61125f81610a80565b82525050565b600060c08201905061127a6000830189610c5d565b6112876020830188611247565b81810360408301526112998187610976565b905081810360608301526112ad8186610976565b905081810360808301526112c18185610976565b90506112d060a0830184611256565b97965050505050505056fea264697066735822122056d5467304c8a76d05ac1b3ddcb01069aba89bce1c713ce06de4be03cb65d94464736f6c63430008110033",
  "linkReferences": {},
  "deployedLinkReferences": {}
}