{
  "_format": "hh-sol-artifact-1",
  "contractName": "DigiTalk",
  "sourceName": "contracts/DigiTalk.sol",
  "abi": [
    {
      "inputs": [],
      "stateMutability": "nonpayable",
      "type": "constructor"
    },
    {
      "anonymous": false,
      "inputs": [
        {
          "indexed": false,
          "internalType": "uint256",
          "name": "id",
          "type": "uint256"
        },
        {
          "indexed": false,
          "internalType": "string",
          "name": "userId",
          "type": "string"
        },
        {
          "indexed": false,
          "internalType": "uint256",
          "name": "tipAmount",
          "type": "uint256"
        },
        {
          "indexed": false,
          "internalType": "string",
          "name": "description",
          "type": "string"
        },
        {
          "indexed": false,
          "internalType": "string",
          "name": "hash",
          "type": "string"
        },
        {
          "indexed": false,
          "internalType": "string",
          "name": "fileName",
          "type": "string"
        },
        {
          "indexed": false,
          "internalType": "string",
          "name": "status",
          "type": "string"
        },
        {
          "indexed": false,
          "internalType": "address payable",
          "name": "auther",
          "type": "address"
        }
      ],
      "name": "Post",
      "type": "event"
    },
    {
      "anonymous": false,
      "inputs": [
        {
          "indexed": false,
          "internalType": "address",
          "name": "sender",
          "type": "address"
        },
        {
          "indexed": false,
          "internalType": "address payable",
          "name": "receiver",
          "type": "address"
        },
        {
          "indexed": false,
          "internalType": "uint256",
          "name": "tipAmount",
          "type": "uint256"
        },
        {
          "indexed": false,
          "internalType": "uint256",
          "name": "timestamp",
          "type": "uint256"
        }
      ],
      "name": "Tiptransaction",
      "type": "event"
    },
    {
      "inputs": [
        {
          "internalType": "string",
          "name": "_description",
          "type": "string"
        },
        {
          "internalType": "string",
          "name": "_status",
          "type": "string"
        },
        {
          "internalType": "string",
          "name": "hash",
          "type": "string"
        },
        {
          "internalType": "string",
          "name": "file_name",
          "type": "string"
        },
        {
          "internalType": "string",
          "name": "_userId",
          "type": "string"
        }
      ],
      "name": "createPost",
      "outputs": [],
      "stateMutability": "nonpayable",
      "type": "function"
    },
    {
      "inputs": [],
      "name": "getAllPosts",
      "outputs": [
        {
          "components": [
            {
              "internalType": "uint256",
              "name": "id",
              "type": "uint256"
            },
            {
              "internalType": "string",
              "name": "userId",
              "type": "string"
            },
            {
              "internalType": "uint256",
              "name": "tipAmount",
              "type": "uint256"
            },
            {
              "internalType": "string",
              "name": "description",
              "type": "string"
            },
            {
              "internalType": "string",
              "name": "hash",
              "type": "string"
            },
            {
              "internalType": "string",
              "name": "fileName",
              "type": "string"
            },
            {
              "internalType": "string",
              "name": "status",
              "type": "string"
            },
            {
              "internalType": "address payable",
              "name": "auther",
              "type": "address"
            }
          ],
          "internalType": "struct DigiTalk.PostStruct[]",
          "name": "",
          "type": "tuple[]"
        }
      ],
      "stateMutability": "view",
      "type": "function"
    },
    {
      "inputs": [],
      "name": "getAlltipTransactions",
      "outputs": [
        {
          "components": [
            {
              "internalType": "address",
              "name": "sender",
              "type": "address"
            },
            {
              "internalType": "address payable",
              "name": "receiver",
              "type": "address"
            },
            {
              "internalType": "uint256",
              "name": "tipAmount",
              "type": "uint256"
            },
            {
              "internalType": "uint256",
              "name": "timestamp",
              "type": "uint256"
            }
          ],
          "internalType": "struct DigiTalk.TiptransactionStruct[]",
          "name": "",
          "type": "tuple[]"
        }
      ],
      "stateMutability": "view",
      "type": "function"
    },
    {
      "inputs": [
        {
          "internalType": "address",
          "name": "_requireAddress",
          "type": "address"
        }
      ],
      "name": "getPostsByAddress",
      "outputs": [
        {
          "components": [
            {
              "internalType": "uint256",
              "name": "id",
              "type": "uint256"
            },
            {
              "internalType": "string",
              "name": "userId",
              "type": "string"
            },
            {
              "internalType": "uint256",
              "name": "tipAmount",
              "type": "uint256"
            },
            {
              "internalType": "string",
              "name": "description",
              "type": "string"
            },
            {
              "internalType": "string",
              "name": "hash",
              "type": "string"
            },
            {
              "internalType": "string",
              "name": "fileName",
              "type": "string"
            },
            {
              "internalType": "string",
              "name": "status",
              "type": "string"
            },
            {
              "internalType": "address payable",
              "name": "auther",
              "type": "address"
            }
          ],
          "internalType": "struct DigiTalk.PostStruct[]",
          "name": "",
          "type": "tuple[]"
        }
      ],
      "stateMutability": "view",
      "type": "function"
    },
    {
      "inputs": [],
      "name": "getPostsCount",
      "outputs": [
        {
          "internalType": "uint256",
          "name": "",
          "type": "uint256"
        }
      ],
      "stateMutability": "view",
      "type": "function"
    },
    {
      "inputs": [],
      "name": "gettipTransactionsCount",
      "outputs": [
        {
          "internalType": "uint256",
          "name": "",
          "type": "uint256"
        }
      ],
      "stateMutability": "view",
      "type": "function"
    },
    {
      "inputs": [],
      "name": "name",
      "outputs": [
        {
          "internalType": "string",
          "name": "",
          "type": "string"
        }
      ],
      "stateMutability": "view",
      "type": "function"
    },
    {
      "inputs": [
        {
          "internalType": "uint256",
          "name": "_id",
          "type": "uint256"
        },
        {
          "internalType": "uint256",
          "name": "amount",
          "type": "uint256"
        }
      ],
      "name": "tipOwner",
      "outputs": [],
      "stateMutability": "nonpayable",
      "type": "function"
    }
  ],
  "bytecode": "0x60806040523480156200001157600080fd5b506040518060400160405280600881526020017f4469676954616c6b00000000000000000000000000000000000000000000000081525060009081620000589190620002e9565b5060006001819055506000600281905550620003d0565b600081519050919050565b7f4e487b7100000000000000000000000000000000000000000000000000000000600052604160045260246000fd5b7f4e487b7100000000000000000000000000000000000000000000000000000000600052602260045260246000fd5b60006002820490506001821680620000f157607f821691505b602082108103620001075762000106620000a9565b5b50919050565b60008190508160005260206000209050919050565b60006020601f8301049050919050565b600082821b905092915050565b600060088302620001717fffffffffffffffffffffffffffffffffffffffffffffffffffffffffffffffff8262000132565b6200017d868362000132565b95508019841693508086168417925050509392505050565b6000819050919050565b6000819050919050565b6000620001ca620001c4620001be8462000195565b6200019f565b62000195565b9050919050565b6000819050919050565b620001e683620001a9565b620001fe620001f582620001d1565b8484546200013f565b825550505050565b600090565b6200021562000206565b62000222818484620001db565b505050565b5b818110156200024a576200023e6000826200020b565b60018101905062000228565b5050565b601f821115620002995762000263816200010d565b6200026e8462000122565b810160208510156200027e578190505b620002966200028d8562000122565b83018262000227565b50505b505050565b600082821c905092915050565b6000620002be600019846008026200029e565b1980831691505092915050565b6000620002d98383620002ab565b9150826002028217905092915050565b620002f4826200006f565b67ffffffffffffffff81111562000310576200030f6200007a565b5b6200031c8254620000d8565b620003298282856200024e565b600060209050601f8311600181146200036157600084156200034c578287015190505b620003588582620002cb565b865550620003c8565b601f19841662000371866200010d565b60005b828110156200039b5784890151825560018201915060208501945060208101905062000374565b86831015620003bb5784890151620003b7601f891682620002ab565b8355505b6001600288020188555050505b505050505050565b61215480620003e06000396000f3fe608060405234801561001057600080fd5b50600436106100885760003560e01c8063836248821161005b5780638362488214610117578063a976285414610135578063e3c7ac8814610153578063fc446bb41461016f57610088565b806306fdde031461008d5780631f72be31146100ab57806330561100146100db5780633604f462146100f9575b600080fd5b61009561018b565b6040516100a291906114bf565b60405180910390f35b6100c560048036038101906100c09190611553565b610219565b6040516100d29190611792565b60405180910390f35b6100e36106bc565b6040516100f09190611792565b60405180910390f35b610101610a60565b60405161010e91906117c3565b60405180910390f35b61011f610a6a565b60405161012c91906117c3565b60405180910390f35b61013d610a74565b60405161014a91906118f1565b60405180910390f35b61016d6004803603810190610168919061193f565b610b93565b005b61018960048036038101906101849190611ab4565b611224565b005b6000805461019890611bea565b80601f01602080910402602001604051908101604052809291908181526020018280546101c490611bea565b80156102115780601f106101e657610100808354040283529160200191610211565b820191906000526020600020905b8154815290600101906020018083116101f457829003601f168201915b505050505081565b6060600060038054905067ffffffffffffffff81111561023c5761023b611989565b5b60405190808252806020026020018201604052801561027557816020015b6102626113d4565b81526020019060019003908161025a5790505b5090506000805b6001548110156106b1578473ffffffffffffffffffffffffffffffffffffffff16600382815481106102b1576102b0611c1b565b5b906000526020600020906008020160070160009054906101000a900473ffffffffffffffffffffffffffffffffffffffff1673ffffffffffffffffffffffffffffffffffffffff160361068f576003818154811061031257610311611c1b565b5b9060005260206000209060080201604051806101000160405290816000820154815260200160018201805461034690611bea565b80601f016020809104026020016040519081016040528092919081815260200182805461037290611bea565b80156103bf5780601f10610394576101008083540402835291602001916103bf565b820191906000526020600020905b8154815290600101906020018083116103a257829003601f168201915b50505050508152602001600282015481526020016003820180546103e290611bea565b80601f016020809104026020016040519081016040528092919081815260200182805461040e90611bea565b801561045b5780601f106104305761010080835404028352916020019161045b565b820191906000526020600020905b81548152906001019060200180831161043e57829003601f168201915b5050505050815260200160048201805461047490611bea565b80601f01602080910402602001604051908101604052809291908181526020018280546104a090611bea565b80156104ed5780601f106104c2576101008083540402835291602001916104ed565b820191906000526020600020905b8154815290600101906020018083116104d057829003601f168201915b5050505050815260200160058201805461050690611bea565b80601f016020809104026020016040519081016040528092919081815260200182805461053290611bea565b801561057f5780601f106105545761010080835404028352916020019161057f565b820191906000526020600020905b81548152906001019060200180831161056257829003601f168201915b5050505050815260200160068201805461059890611bea565b80601f01602080910402602001604051908101604052809291908181526020018280546105c490611bea565b80156106115780601f106105e657610100808354040283529160200191610611565b820191906000526020600020905b8154815290600101906020018083116105f457829003601f168201915b505050505081526020016007820160009054906101000a900473ffffffffffffffffffffffffffffffffffffffff1673ffffffffffffffffffffffffffffffffffffffff1673ffffffffffffffffffffffffffffffffffffffff168152505083838151811061068357610682611c1b565b5b60200260200101819052505b60018261069c9190611c79565b915080806106a990611cad565b91505061027c565b508192505050919050565b60606003805480602002602001604051908101604052809291908181526020016000905b82821015610a575783829060005260206000209060080201604051806101000160405290816000820154815260200160018201805461071e90611bea565b80601f016020809104026020016040519081016040528092919081815260200182805461074a90611bea565b80156107975780601f1061076c57610100808354040283529160200191610797565b820191906000526020600020905b81548152906001019060200180831161077a57829003601f168201915b50505050508152602001600282015481526020016003820180546107ba90611bea565b80601f01602080910402602001604051908101604052809291908181526020018280546107e690611bea565b80156108335780601f1061080857610100808354040283529160200191610833565b820191906000526020600020905b81548152906001019060200180831161081657829003601f168201915b5050505050815260200160048201805461084c90611bea565b80601f016020809104026020016040519081016040528092919081815260200182805461087890611bea565b80156108c55780601f1061089a576101008083540402835291602001916108c5565b820191906000526020600020905b8154815290600101906020018083116108a857829003601f168201915b505050505081526020016005820180546108de90611bea565b80601f016020809104026020016040519081016040528092919081815260200182805461090a90611bea565b80156109575780601f1061092c57610100808354040283529160200191610957565b820191906000526020600020905b81548152906001019060200180831161093a57829003601f168201915b5050505050815260200160068201805461097090611bea565b80601f016020809104026020016040519081016040528092919081815260200182805461099c90611bea565b80156109e95780601f106109be576101008083540402835291602001916109e9565b820191906000526020600020905b8154815290600101906020018083116109cc57829003601f168201915b505050505081526020016007820160009054906101000a900473ffffffffffffffffffffffffffffffffffffffff1673ffffffffffffffffffffffffffffffffffffffff1673ffffffffffffffffffffffffffffffffffffffff1681525050815260200190600101906106e0565b50505050905090565b6000600254905090565b6000600154905090565b60606004805480602002602001604051908101604052809291908181526020016000905b82821015610b8a57838290600052602060002090600402016040518060800160405290816000820160009054906101000a900473ffffffffffffffffffffffffffffffffffffffff1673ffffffffffffffffffffffffffffffffffffffff1673ffffffffffffffffffffffffffffffffffffffff1681526020016001820160009054906101000a900473ffffffffffffffffffffffffffffffffffffffff1673ffffffffffffffffffffffffffffffffffffffff1673ffffffffffffffffffffffffffffffffffffffff1681526020016002820154815260200160038201548152505081526020019060010190610a98565b50505050905090565b60008210158015610ba657506001548211155b610be5576040517f08c379a0000000000000000000000000000000000000000000000000000000008152600401610bdc90611d41565b60405180910390fd5b600160026000828254610bf89190611c79565b92505081905550600060038381548110610c1557610c14611c1b565b5b90600052602060002090600802016040518061010001604052908160008201548152602001600182018054610c4990611bea565b80601f0160208091040260200160405190810160405280929190818152602001828054610c7590611bea565b8015610cc25780601f10610c9757610100808354040283529160200191610cc2565b820191906000526020600020905b815481529060010190602001808311610ca557829003601f168201915b5050505050815260200160028201548152602001600382018054610ce590611bea565b80601f0160208091040260200160405190810160405280929190818152602001828054610d1190611bea565b8015610d5e5780601f10610d3357610100808354040283529160200191610d5e565b820191906000526020600020905b815481529060010190602001808311610d4157829003601f168201915b50505050508152602001600482018054610d7790611bea565b80601f0160208091040260200160405190810160405280929190818152602001828054610da390611bea565b8015610df05780601f10610dc557610100808354040283529160200191610df0565b820191906000526020600020905b815481529060010190602001808311610dd357829003601f168201915b50505050508152602001600582018054610e0990611bea565b80601f0160208091040260200160405190810160405280929190818152602001828054610e3590611bea565b8015610e825780601f10610e5757610100808354040283529160200191610e82565b820191906000526020600020905b815481529060010190602001808311610e6557829003601f168201915b50505050508152602001600682018054610e9b90611bea565b80601f0160208091040260200160405190810160405280929190818152602001828054610ec790611bea565b8015610f145780601f10610ee957610100808354040283529160200191610f14565b820191906000526020600020905b815481529060010190602001808311610ef757829003601f168201915b505050505081526020016007820160009054906101000a900473ffffffffffffffffffffffffffffffffffffffff1673ffffffffffffffffffffffffffffffffffffffff1673ffffffffffffffffffffffffffffffffffffffff16815250509050818160400151610f859190611c79565b8160400181815250508060038481548110610fa357610fa2611c1b565b5b9060005260206000209060080201600082015181600001556020820151816001019081610fd09190611f0d565b50604082015181600201556060820151816003019081610ff09190611f0d565b5060808201518160040190816110069190611f0d565b5060a082015181600501908161101c9190611f0d565b5060c08201518160060190816110329190611f0d565b5060e08201518160070160006101000a81548173ffffffffffffffffffffffffffffffffffffffff021916908373ffffffffffffffffffffffffffffffffffffffff160217905550905050600460405180608001604052803373ffffffffffffffffffffffffffffffffffffffff1681526020018360e0015173ffffffffffffffffffffffffffffffffffffffff16815260200184815260200142815250908060018154018082558091505060019003906000526020600020906004020160009091909190915060008201518160000160006101000a81548173ffffffffffffffffffffffffffffffffffffffff021916908373ffffffffffffffffffffffffffffffffffffffff16021790555060208201518160010160006101000a81548173ffffffffffffffffffffffffffffffffffffffff021916908373ffffffffffffffffffffffffffffffffffffffff160217905550604082015181600201556060820151816003015550507f30915cf6f916ac56075aa3c0a983980f7bbe59a34a5ca2f52dc96b0667f9922d33600385815481106111d3576111d2611c1b565b5b906000526020600020906008020160070160009054906101000a900473ffffffffffffffffffffffffffffffffffffffff1684426040516112179493929190611ffd565b60405180910390a1505050565b6001600081548092919061123790611cad565b919050555060036040518061010001604052806001548152602001838152602001600081526020018781526020018581526020018481526020018681526020013373ffffffffffffffffffffffffffffffffffffffff1681525090806001815401808255809150506001900390600052602060002090600802016000909190919091506000820151816000015560208201518160010190816112d99190611f0d565b506040820151816002015560608201518160030190816112f99190611f0d565b50608082015181600401908161130f9190611f0d565b5060a08201518160050190816113259190611f0d565b5060c082015181600601908161133b9190611f0d565b5060e08201518160070160006101000a81548173ffffffffffffffffffffffffffffffffffffffff021916908373ffffffffffffffffffffffffffffffffffffffff16021790555050507f6373ddc00b0b7c837b1dd1d13442ad7510b9a0845e9adddcddd803c4c9f974386001548260008887878a336040516113c598979695949392919061207d565b60405180910390a15050505050565b60405180610100016040528060008152602001606081526020016000815260200160608152602001606081526020016060815260200160608152602001600073ffffffffffffffffffffffffffffffffffffffff1681525090565b600081519050919050565b600082825260208201905092915050565b60005b8381101561146957808201518184015260208101905061144e565b60008484015250505050565b6000601f19601f8301169050919050565b60006114918261142f565b61149b818561143a565b93506114ab81856020860161144b565b6114b481611475565b840191505092915050565b600060208201905081810360008301526114d98184611486565b905092915050565b6000604051905090565b600080fd5b600080fd5b600073ffffffffffffffffffffffffffffffffffffffff82169050919050565b6000611520826114f5565b9050919050565b61153081611515565b811461153b57600080fd5b50565b60008135905061154d81611527565b92915050565b600060208284031215611569576115686114eb565b5b60006115778482850161153e565b91505092915050565b600081519050919050565b600082825260208201905092915050565b6000819050602082019050919050565b6000819050919050565b6115bf816115ac565b82525050565b600082825260208201905092915050565b60006115e18261142f565b6115eb81856115c5565b93506115fb81856020860161144b565b61160481611475565b840191505092915050565b600061161a826114f5565b9050919050565b61162a8161160f565b82525050565b60006101008301600083015161164960008601826115b6565b506020830151848203602086015261166182826115d6565b915050604083015161167660408601826115b6565b506060830151848203606086015261168e82826115d6565b915050608083015184820360808601526116a882826115d6565b91505060a083015184820360a08601526116c282826115d6565b91505060c083015184820360c08601526116dc82826115d6565b91505060e08301516116f160e0860182611621565b508091505092915050565b60006117088383611630565b905092915050565b6000602082019050919050565b600061172882611580565b611732818561158b565b9350836020820285016117448561159c565b8060005b85811015611780578484038952815161176185826116fc565b945061176c83611710565b925060208a01995050600181019050611748565b50829750879550505050505092915050565b600060208201905081810360008301526117ac818461171d565b905092915050565b6117bd816115ac565b82525050565b60006020820190506117d860008301846117b4565b92915050565b600081519050919050565b600082825260208201905092915050565b6000819050602082019050919050565b61181381611515565b82525050565b60808201600082015161182f600085018261180a565b5060208201516118426020850182611621565b50604082015161185560408501826115b6565b50606082015161186860608501826115b6565b50505050565b600061187a8383611819565b60808301905092915050565b6000602082019050919050565b600061189e826117de565b6118a881856117e9565b93506118b3836117fa565b8060005b838110156118e45781516118cb888261186e565b97506118d683611886565b9250506001810190506118b7565b5085935050505092915050565b6000602082019050818103600083015261190b8184611893565b905092915050565b61191c816115ac565b811461192757600080fd5b50565b60008135905061193981611913565b92915050565b60008060408385031215611956576119556114eb565b5b60006119648582860161192a565b92505060206119758582860161192a565b9150509250929050565b600080fd5b600080fd5b7f4e487b7100000000000000000000000000000000000000000000000000000000600052604160045260246000fd5b6119c182611475565b810181811067ffffffffffffffff821117156119e0576119df611989565b5b80604052505050565b60006119f36114e1565b90506119ff82826119b8565b919050565b600067ffffffffffffffff821115611a1f57611a1e611989565b5b611a2882611475565b9050602081019050919050565b82818337600083830152505050565b6000611a57611a5284611a04565b6119e9565b905082815260208101848484011115611a7357611a72611984565b5b611a7e848285611a35565b509392505050565b600082601f830112611a9b57611a9a61197f565b5b8135611aab848260208601611a44565b91505092915050565b600080600080600060a08688031215611ad057611acf6114eb565b5b600086013567ffffffffffffffff811115611aee57611aed6114f0565b5b611afa88828901611a86565b955050602086013567ffffffffffffffff811115611b1b57611b1a6114f0565b5b611b2788828901611a86565b945050604086013567ffffffffffffffff811115611b4857611b476114f0565b5b611b5488828901611a86565b935050606086013567ffffffffffffffff811115611b7557611b746114f0565b5b611b8188828901611a86565b925050608086013567ffffffffffffffff811115611ba257611ba16114f0565b5b611bae88828901611a86565b9150509295509295909350565b7f4e487b7100000000000000000000000000000000000000000000000000000000600052602260045260246000fd5b60006002820490506001821680611c0257607f821691505b602082108103611c1557611c14611bbb565b5b50919050565b7f4e487b7100000000000000000000000000000000000000000000000000000000600052603260045260246000fd5b7f4e487b7100000000000000000000000000000000000000000000000000000000600052601160045260246000fd5b6000611c84826115ac565b9150611c8f836115ac565b9250828201905080821115611ca757611ca6611c4a565b5b92915050565b6000611cb8826115ac565b91507fffffffffffffffffffffffffffffffffffffffffffffffffffffffffffffffff8203611cea57611ce9611c4a565b5b600182019050919050565b7f4964206973206e6f7420636f7272656374000000000000000000000000000000600082015250565b6000611d2b60118361143a565b9150611d3682611cf5565b602082019050919050565b60006020820190508181036000830152611d5a81611d1e565b9050919050565b60008190508160005260206000209050919050565b60006020601f8301049050919050565b600082821b905092915050565b600060088302611dc37fffffffffffffffffffffffffffffffffffffffffffffffffffffffffffffffff82611d86565b611dcd8683611d86565b95508019841693508086168417925050509392505050565b6000819050919050565b6000611e0a611e05611e00846115ac565b611de5565b6115ac565b9050919050565b6000819050919050565b611e2483611def565b611e38611e3082611e11565b848454611d93565b825550505050565b600090565b611e4d611e40565b611e58818484611e1b565b505050565b5b81811015611e7c57611e71600082611e45565b600181019050611e5e565b5050565b601f821115611ec157611e9281611d61565b611e9b84611d76565b81016020851015611eaa578190505b611ebe611eb685611d76565b830182611e5d565b50505b505050565b600082821c905092915050565b6000611ee460001984600802611ec6565b1980831691505092915050565b6000611efd8383611ed3565b9150826002028217905092915050565b611f168261142f565b67ffffffffffffffff811115611f2f57611f2e611989565b5b611f398254611bea565b611f44828285611e80565b600060209050601f831160018114611f775760008415611f65578287015190505b611f6f8582611ef1565b865550611fd7565b601f198416611f8586611d61565b60005b82811015611fad57848901518255600182019150602085019450602081019050611f88565b86831015611fca5784890151611fc6601f891682611ed3565b8355505b6001600288020188555050505b505050505050565b611fe881611515565b82525050565b611ff78161160f565b82525050565b60006080820190506120126000830187611fdf565b61201f6020830186611fee565b61202c60408301856117b4565b61203960608301846117b4565b95945050505050565b6000819050919050565b600061206761206261205d84612042565b611de5565b6115ac565b9050919050565b6120778161204c565b82525050565b600061010082019050612093600083018b6117b4565b81810360208301526120a5818a611486565b90506120b4604083018961206e565b81810360608301526120c68188611486565b905081810360808301526120da8187611486565b905081810360a08301526120ee8186611486565b905081810360c08301526121028185611486565b905061211160e0830184611fee565b999850505050505050505056fea264697066735822122093529e275a8b9a8f373e9fdbc548fe00be41facf3b03fa582070ba8dea06acef64736f6c63430008110033",
  "linkReferences": {},
  "deployedLinkReferences": {}
}