{
  "_format": "hh-sol-artifact-1",
  "contractName": "DigiTalk",
  "sourceName": "contracts/DigiTalk.sol",
  "abi": [
    {
      "inputs": [],
      "stateMutability": "nonpayable",
      "type": "constructor"
    },
    {
      "anonymous": false,
      "inputs": [
        {
          "indexed": false,
          "internalType": "uint256",
          "name": "id",
          "type": "uint256"
        },
        {
          "indexed": false,
          "internalType": "uint256",
          "name": "tipAmount",
          "type": "uint256"
        },
        {
          "indexed": false,
          "internalType": "string",
          "name": "description",
          "type": "string"
        },
        {
          "indexed": false,
          "internalType": "string",
          "name": "hash",
          "type": "string"
        },
        {
          "indexed": false,
          "internalType": "string",
          "name": "fileName",
          "type": "string"
        },
        {
          "indexed": false,
          "internalType": "string",
          "name": "status",
          "type": "string"
        },
        {
          "indexed": false,
          "internalType": "address payable",
          "name": "auther",
          "type": "address"
        }
      ],
      "name": "Post",
      "type": "event"
    },
    {
      "anonymous": false,
      "inputs": [
        {
          "indexed": false,
          "internalType": "address",
          "name": "sender",
          "type": "address"
        },
        {
          "indexed": false,
          "internalType": "address payable",
          "name": "receiver",
          "type": "address"
        },
        {
          "indexed": false,
          "internalType": "uint256",
          "name": "tipAmount",
          "type": "uint256"
        },
        {
          "indexed": false,
          "internalType": "uint256",
          "name": "timestamp",
          "type": "uint256"
        }
      ],
      "name": "Tiptransaction",
      "type": "event"
    },
    {
      "inputs": [
        {
          "internalType": "string",
          "name": "_description",
          "type": "string"
        },
        {
          "internalType": "string",
          "name": "_status",
          "type": "string"
        },
        {
          "internalType": "string",
          "name": "hash",
          "type": "string"
        },
        {
          "internalType": "string",
          "name": "file_name",
          "type": "string"
        }
      ],
      "name": "createPost",
      "outputs": [],
      "stateMutability": "nonpayable",
      "type": "function"
    },
    {
      "inputs": [],
      "name": "getAllPosts",
      "outputs": [
        {
          "components": [
            {
              "internalType": "uint256",
              "name": "id",
              "type": "uint256"
            },
            {
              "internalType": "uint256",
              "name": "tipAmount",
              "type": "uint256"
            },
            {
              "internalType": "string",
              "name": "description",
              "type": "string"
            },
            {
              "internalType": "string",
              "name": "hash",
              "type": "string"
            },
            {
              "internalType": "string",
              "name": "fileName",
              "type": "string"
            },
            {
              "internalType": "string",
              "name": "status",
              "type": "string"
            },
            {
              "internalType": "address payable",
              "name": "auther",
              "type": "address"
            }
          ],
          "internalType": "struct DigiTalk.PostStruct[]",
          "name": "",
          "type": "tuple[]"
        }
      ],
      "stateMutability": "view",
      "type": "function"
    },
    {
      "inputs": [],
      "name": "getAlltipTransactions",
      "outputs": [
        {
          "components": [
            {
              "internalType": "address",
              "name": "sender",
              "type": "address"
            },
            {
              "internalType": "address payable",
              "name": "receiver",
              "type": "address"
            },
            {
              "internalType": "uint256",
              "name": "tipAmount",
              "type": "uint256"
            },
            {
              "internalType": "uint256",
              "name": "timestamp",
              "type": "uint256"
            }
          ],
          "internalType": "struct DigiTalk.TiptransactionStruct[]",
          "name": "",
          "type": "tuple[]"
        }
      ],
      "stateMutability": "view",
      "type": "function"
    },
    {
      "inputs": [
        {
          "internalType": "address",
          "name": "_requireAddress",
          "type": "address"
        }
      ],
      "name": "getPostsByAddress",
      "outputs": [
        {
          "components": [
            {
              "internalType": "uint256",
              "name": "id",
              "type": "uint256"
            },
            {
              "internalType": "uint256",
              "name": "tipAmount",
              "type": "uint256"
            },
            {
              "internalType": "string",
              "name": "description",
              "type": "string"
            },
            {
              "internalType": "string",
              "name": "hash",
              "type": "string"
            },
            {
              "internalType": "string",
              "name": "fileName",
              "type": "string"
            },
            {
              "internalType": "string",
              "name": "status",
              "type": "string"
            },
            {
              "internalType": "address payable",
              "name": "auther",
              "type": "address"
            }
          ],
          "internalType": "struct DigiTalk.PostStruct[]",
          "name": "",
          "type": "tuple[]"
        }
      ],
      "stateMutability": "view",
      "type": "function"
    },
    {
      "inputs": [],
      "name": "getPostsCount",
      "outputs": [
        {
          "internalType": "uint256",
          "name": "",
          "type": "uint256"
        }
      ],
      "stateMutability": "view",
      "type": "function"
    },
    {
      "inputs": [],
      "name": "gettipTransactionsCount",
      "outputs": [
        {
          "internalType": "uint256",
          "name": "",
          "type": "uint256"
        }
      ],
      "stateMutability": "view",
      "type": "function"
    },
    {
      "inputs": [],
      "name": "name",
      "outputs": [
        {
          "internalType": "string",
          "name": "",
          "type": "string"
        }
      ],
      "stateMutability": "view",
      "type": "function"
    },
    {
      "inputs": [
        {
          "internalType": "uint256",
          "name": "_id",
          "type": "uint256"
        },
        {
          "internalType": "uint256",
          "name": "amount",
          "type": "uint256"
        }
      ],
      "name": "tipOwner",
      "outputs": [],
      "stateMutability": "nonpayable",
      "type": "function"
    }
  ],
  "bytecode": "0x60806040523480156200001157600080fd5b506040518060400160405280600881526020017f4469676954616c6b00000000000000000000000000000000000000000000000081525060009081620000589190620002e9565b5060006001819055506000600281905550620003d0565b600081519050919050565b7f4e487b7100000000000000000000000000000000000000000000000000000000600052604160045260246000fd5b7f4e487b7100000000000000000000000000000000000000000000000000000000600052602260045260246000fd5b60006002820490506001821680620000f157607f821691505b602082108103620001075762000106620000a9565b5b50919050565b60008190508160005260206000209050919050565b60006020601f8301049050919050565b600082821b905092915050565b600060088302620001717fffffffffffffffffffffffffffffffffffffffffffffffffffffffffffffffff8262000132565b6200017d868362000132565b95508019841693508086168417925050509392505050565b6000819050919050565b6000819050919050565b6000620001ca620001c4620001be8462000195565b6200019f565b62000195565b9050919050565b6000819050919050565b620001e683620001a9565b620001fe620001f582620001d1565b8484546200013f565b825550505050565b600090565b6200021562000206565b62000222818484620001db565b505050565b5b818110156200024a576200023e6000826200020b565b60018101905062000228565b5050565b601f821115620002995762000263816200010d565b6200026e8462000122565b810160208510156200027e578190505b620002966200028d8562000122565b83018262000227565b50505b505050565b600082821c905092915050565b6000620002be600019846008026200029e565b1980831691505092915050565b6000620002d98383620002ab565b9150826002028217905092915050565b620002f4826200006f565b67ffffffffffffffff81111562000310576200030f6200007a565b5b6200031c8254620000d8565b620003298282856200024e565b600060209050601f8311600181146200036157600084156200034c578287015190505b620003588582620002cb565b865550620003c8565b601f19841662000371866200010d565b60005b828110156200039b5784890151825560018201915060208501945060208101905062000374565b86831015620003bb5784890151620003b7601f891682620002ab565b8355505b6001600288020188555050505b505050505050565b611efc80620003e06000396000f3fe608060405234801561001057600080fd5b50600436106100885760003560e01c80633604f4621161005b5780633604f462146101155780638362488214610133578063a976285414610151578063e3c7ac881461016f57610088565b806306fdde031461008d5780630d57f91f146100ab5780631f72be31146100c757806330561100146100f7575b600080fd5b61009561018b565b6040516100a291906112c8565b60405180910390f35b6100c560048036038101906100c09190611433565b610219565b005b6100e160048036038101906100dc9190611568565b6103a9565b6040516100ee919061178c565b60405180910390f35b6100ff6107b9565b60405161010c919061178c565b60405180910390f35b61011d610aca565b60405161012a91906117bd565b60405180910390f35b61013b610ad4565b60405161014891906117bd565b60405180910390f35b610159610ade565b60405161016691906118eb565b60405180910390f35b61018960048036038101906101849190611939565b610bfd565b005b60008054610198906119a8565b80601f01602080910402602001604051908101604052809291908181526020018280546101c4906119a8565b80156102115780601f106101e657610100808354040283529160200191610211565b820191906000526020600020905b8154815290600101906020018083116101f457829003601f168201915b505050505081565b6001600081548092919061022c90611a08565b919050555060036040518060e001604052806001548152602001600081526020018681526020018481526020018381526020018581526020013373ffffffffffffffffffffffffffffffffffffffff168152509080600181540180825580915050600190039060005260206000209060070201600090919091909150600082015181600001556020820151816001015560408201518160020190816102d19190611bfc565b5060608201518160030190816102e79190611bfc565b5060808201518160040190816102fd9190611bfc565b5060a08201518160050190816103139190611bfc565b5060c08201518160060160006101000a81548173ffffffffffffffffffffffffffffffffffffffff021916908373ffffffffffffffffffffffffffffffffffffffff16021790555050507fb4982fd5c35799e8412a552d08f9bc0c3ce8c50fc7b2f50a162dc6857f62f6216001546000868585883360405161039b9796959493929190611d18565b60405180910390a150505050565b6060600060038054905067ffffffffffffffff8111156103cc576103cb611308565b5b60405190808252806020026020018201604052801561040557816020015b6103f26111e5565b8152602001906001900390816103ea5790505b5090506000805b6001548110156107ae578473ffffffffffffffffffffffffffffffffffffffff166003828154811061044157610440611da3565b5b906000526020600020906007020160060160009054906101000a900473ffffffffffffffffffffffffffffffffffffffff1673ffffffffffffffffffffffffffffffffffffffff160361078c57600381815481106104a2576104a1611da3565b5b90600052602060002090600702016040518060e001604052908160008201548152602001600182015481526020016002820180546104df906119a8565b80601f016020809104026020016040519081016040528092919081815260200182805461050b906119a8565b80156105585780601f1061052d57610100808354040283529160200191610558565b820191906000526020600020905b81548152906001019060200180831161053b57829003601f168201915b50505050508152602001600382018054610571906119a8565b80601f016020809104026020016040519081016040528092919081815260200182805461059d906119a8565b80156105ea5780601f106105bf576101008083540402835291602001916105ea565b820191906000526020600020905b8154815290600101906020018083116105cd57829003601f168201915b50505050508152602001600482018054610603906119a8565b80601f016020809104026020016040519081016040528092919081815260200182805461062f906119a8565b801561067c5780601f106106515761010080835404028352916020019161067c565b820191906000526020600020905b81548152906001019060200180831161065f57829003601f168201915b50505050508152602001600582018054610695906119a8565b80601f01602080910402602001604051908101604052809291908181526020018280546106c1906119a8565b801561070e5780601f106106e35761010080835404028352916020019161070e565b820191906000526020600020905b8154815290600101906020018083116106f157829003601f168201915b505050505081526020016006820160009054906101000a900473ffffffffffffffffffffffffffffffffffffffff1673ffffffffffffffffffffffffffffffffffffffff1673ffffffffffffffffffffffffffffffffffffffff16815250508383815181106107805761077f611da3565b5b60200260200101819052505b6001826107999190611dd2565b915080806107a690611a08565b91505061040c565b508192505050919050565b60606003805480602002602001604051908101604052809291908181526020016000905b82821015610ac157838290600052602060002090600702016040518060e00160405290816000820154815260200160018201548152602001600282018054610824906119a8565b80601f0160208091040260200160405190810160405280929190818152602001828054610850906119a8565b801561089d5780601f106108725761010080835404028352916020019161089d565b820191906000526020600020905b81548152906001019060200180831161088057829003601f168201915b505050505081526020016003820180546108b6906119a8565b80601f01602080910402602001604051908101604052809291908181526020018280546108e2906119a8565b801561092f5780601f106109045761010080835404028352916020019161092f565b820191906000526020600020905b81548152906001019060200180831161091257829003601f168201915b50505050508152602001600482018054610948906119a8565b80601f0160208091040260200160405190810160405280929190818152602001828054610974906119a8565b80156109c15780601f10610996576101008083540402835291602001916109c1565b820191906000526020600020905b8154815290600101906020018083116109a457829003601f168201915b505050505081526020016005820180546109da906119a8565b80601f0160208091040260200160405190810160405280929190818152602001828054610a06906119a8565b8015610a535780601f10610a2857610100808354040283529160200191610a53565b820191906000526020600020905b815481529060010190602001808311610a3657829003601f168201915b505050505081526020016006820160009054906101000a900473ffffffffffffffffffffffffffffffffffffffff1673ffffffffffffffffffffffffffffffffffffffff1673ffffffffffffffffffffffffffffffffffffffff1681525050815260200190600101906107dd565b50505050905090565b6000600254905090565b6000600154905090565b60606004805480602002602001604051908101604052809291908181526020016000905b82821015610bf457838290600052602060002090600402016040518060800160405290816000820160009054906101000a900473ffffffffffffffffffffffffffffffffffffffff1673ffffffffffffffffffffffffffffffffffffffff1673ffffffffffffffffffffffffffffffffffffffff1681526020016001820160009054906101000a900473ffffffffffffffffffffffffffffffffffffffff1673ffffffffffffffffffffffffffffffffffffffff1673ffffffffffffffffffffffffffffffffffffffff1681526020016002820154815260200160038201548152505081526020019060010190610b02565b50505050905090565b60008210158015610c1057506001548211155b610c4f576040517f08c379a0000000000000000000000000000000000000000000000000000000008152600401610c4690611e52565b60405180910390fd5b600160026000828254610c629190611dd2565b92505081905550600060038381548110610c7f57610c7e611da3565b5b90600052602060002090600702016040518060e00160405290816000820154815260200160018201548152602001600282018054610cbc906119a8565b80601f0160208091040260200160405190810160405280929190818152602001828054610ce8906119a8565b8015610d355780601f10610d0a57610100808354040283529160200191610d35565b820191906000526020600020905b815481529060010190602001808311610d1857829003601f168201915b50505050508152602001600382018054610d4e906119a8565b80601f0160208091040260200160405190810160405280929190818152602001828054610d7a906119a8565b8015610dc75780601f10610d9c57610100808354040283529160200191610dc7565b820191906000526020600020905b815481529060010190602001808311610daa57829003601f168201915b50505050508152602001600482018054610de0906119a8565b80601f0160208091040260200160405190810160405280929190818152602001828054610e0c906119a8565b8015610e595780601f10610e2e57610100808354040283529160200191610e59565b820191906000526020600020905b815481529060010190602001808311610e3c57829003601f168201915b50505050508152602001600582018054610e72906119a8565b80601f0160208091040260200160405190810160405280929190818152602001828054610e9e906119a8565b8015610eeb5780601f10610ec057610100808354040283529160200191610eeb565b820191906000526020600020905b815481529060010190602001808311610ece57829003601f168201915b505050505081526020016006820160009054906101000a900473ffffffffffffffffffffffffffffffffffffffff1673ffffffffffffffffffffffffffffffffffffffff1673ffffffffffffffffffffffffffffffffffffffff16815250509050818160200151610f5c9190611dd2565b8160200181815250508060038481548110610f7a57610f79611da3565b5b906000526020600020906007020160008201518160000155602082015181600101556040820151816002019081610fb19190611bfc565b506060820151816003019081610fc79190611bfc565b506080820151816004019081610fdd9190611bfc565b5060a0820151816005019081610ff39190611bfc565b5060c08201518160060160006101000a81548173ffffffffffffffffffffffffffffffffffffffff021916908373ffffffffffffffffffffffffffffffffffffffff160217905550905050600460405180608001604052803373ffffffffffffffffffffffffffffffffffffffff1681526020018360c0015173ffffffffffffffffffffffffffffffffffffffff16815260200184815260200142815250908060018154018082558091505060019003906000526020600020906004020160009091909190915060008201518160000160006101000a81548173ffffffffffffffffffffffffffffffffffffffff021916908373ffffffffffffffffffffffffffffffffffffffff16021790555060208201518160010160006101000a81548173ffffffffffffffffffffffffffffffffffffffff021916908373ffffffffffffffffffffffffffffffffffffffff160217905550604082015181600201556060820151816003015550507f30915cf6f916ac56075aa3c0a983980f7bbe59a34a5ca2f52dc96b0667f9922d336003858154811061119457611193611da3565b5b906000526020600020906007020160060160009054906101000a900473ffffffffffffffffffffffffffffffffffffffff1684426040516111d89493929190611e81565b60405180910390a1505050565b6040518060e00160405280600081526020016000815260200160608152602001606081526020016060815260200160608152602001600073ffffffffffffffffffffffffffffffffffffffff1681525090565b600081519050919050565b600082825260208201905092915050565b60005b83811015611272578082015181840152602081019050611257565b60008484015250505050565b6000601f19601f8301169050919050565b600061129a82611238565b6112a48185611243565b93506112b4818560208601611254565b6112bd8161127e565b840191505092915050565b600060208201905081810360008301526112e2818461128f565b905092915050565b6000604051905090565b600080fd5b600080fd5b600080fd5b600080fd5b7f4e487b7100000000000000000000000000000000000000000000000000000000600052604160045260246000fd5b6113408261127e565b810181811067ffffffffffffffff8211171561135f5761135e611308565b5b80604052505050565b60006113726112ea565b905061137e8282611337565b919050565b600067ffffffffffffffff82111561139e5761139d611308565b5b6113a78261127e565b9050602081019050919050565b82818337600083830152505050565b60006113d66113d184611383565b611368565b9050828152602081018484840111156113f2576113f1611303565b5b6113fd8482856113b4565b509392505050565b600082601f83011261141a576114196112fe565b5b813561142a8482602086016113c3565b91505092915050565b6000806000806080858703121561144d5761144c6112f4565b5b600085013567ffffffffffffffff81111561146b5761146a6112f9565b5b61147787828801611405565b945050602085013567ffffffffffffffff811115611498576114976112f9565b5b6114a487828801611405565b935050604085013567ffffffffffffffff8111156114c5576114c46112f9565b5b6114d187828801611405565b925050606085013567ffffffffffffffff8111156114f2576114f16112f9565b5b6114fe87828801611405565b91505092959194509250565b600073ffffffffffffffffffffffffffffffffffffffff82169050919050565b60006115358261150a565b9050919050565b6115458161152a565b811461155057600080fd5b50565b6000813590506115628161153c565b92915050565b60006020828403121561157e5761157d6112f4565b5b600061158c84828501611553565b91505092915050565b600081519050919050565b600082825260208201905092915050565b6000819050602082019050919050565b6000819050919050565b6115d4816115c1565b82525050565b600082825260208201905092915050565b60006115f682611238565b61160081856115da565b9350611610818560208601611254565b6116198161127e565b840191505092915050565b600061162f8261150a565b9050919050565b61163f81611624565b82525050565b600060e08301600083015161165d60008601826115cb565b50602083015161167060208601826115cb565b506040830151848203604086015261168882826115eb565b915050606083015184820360608601526116a282826115eb565b915050608083015184820360808601526116bc82826115eb565b91505060a083015184820360a08601526116d682826115eb565b91505060c08301516116eb60c0860182611636565b508091505092915050565b60006117028383611645565b905092915050565b6000602082019050919050565b600061172282611595565b61172c81856115a0565b93508360208202850161173e856115b1565b8060005b8581101561177a578484038952815161175b85826116f6565b94506117668361170a565b925060208a01995050600181019050611742565b50829750879550505050505092915050565b600060208201905081810360008301526117a68184611717565b905092915050565b6117b7816115c1565b82525050565b60006020820190506117d260008301846117ae565b92915050565b600081519050919050565b600082825260208201905092915050565b6000819050602082019050919050565b61180d8161152a565b82525050565b6080820160008201516118296000850182611804565b50602082015161183c6020850182611636565b50604082015161184f60408501826115cb565b50606082015161186260608501826115cb565b50505050565b60006118748383611813565b60808301905092915050565b6000602082019050919050565b6000611898826117d8565b6118a281856117e3565b93506118ad836117f4565b8060005b838110156118de5781516118c58882611868565b97506118d083611880565b9250506001810190506118b1565b5085935050505092915050565b60006020820190508181036000830152611905818461188d565b905092915050565b611916816115c1565b811461192157600080fd5b50565b6000813590506119338161190d565b92915050565b600080604083850312156119505761194f6112f4565b5b600061195e85828601611924565b925050602061196f85828601611924565b9150509250929050565b7f4e487b7100000000000000000000000000000000000000000000000000000000600052602260045260246000fd5b600060028204905060018216806119c057607f821691505b6020821081036119d3576119d2611979565b5b50919050565b7f4e487b7100000000000000000000000000000000000000000000000000000000600052601160045260246000fd5b6000611a13826115c1565b91507fffffffffffffffffffffffffffffffffffffffffffffffffffffffffffffffff8203611a4557611a446119d9565b5b600182019050919050565b60008190508160005260206000209050919050565b60006020601f8301049050919050565b600082821b905092915050565b600060088302611ab27fffffffffffffffffffffffffffffffffffffffffffffffffffffffffffffffff82611a75565b611abc8683611a75565b95508019841693508086168417925050509392505050565b6000819050919050565b6000611af9611af4611aef846115c1565b611ad4565b6115c1565b9050919050565b6000819050919050565b611b1383611ade565b611b27611b1f82611b00565b848454611a82565b825550505050565b600090565b611b3c611b2f565b611b47818484611b0a565b505050565b5b81811015611b6b57611b60600082611b34565b600181019050611b4d565b5050565b601f821115611bb057611b8181611a50565b611b8a84611a65565b81016020851015611b99578190505b611bad611ba585611a65565b830182611b4c565b50505b505050565b600082821c905092915050565b6000611bd360001984600802611bb5565b1980831691505092915050565b6000611bec8383611bc2565b9150826002028217905092915050565b611c0582611238565b67ffffffffffffffff811115611c1e57611c1d611308565b5b611c2882546119a8565b611c33828285611b6f565b600060209050601f831160018114611c665760008415611c54578287015190505b611c5e8582611be0565b865550611cc6565b601f198416611c7486611a50565b60005b82811015611c9c57848901518255600182019150602085019450602081019050611c77565b86831015611cb95784890151611cb5601f891682611bc2565b8355505b6001600288020188555050505b505050505050565b6000819050919050565b6000611cf3611cee611ce984611cce565b611ad4565b6115c1565b9050919050565b611d0381611cd8565b82525050565b611d1281611624565b82525050565b600060e082019050611d2d600083018a6117ae565b611d3a6020830189611cfa565b8181036040830152611d4c818861128f565b90508181036060830152611d60818761128f565b90508181036080830152611d74818661128f565b905081810360a0830152611d88818561128f565b9050611d9760c0830184611d09565b98975050505050505050565b7f4e487b7100000000000000000000000000000000000000000000000000000000600052603260045260246000fd5b6000611ddd826115c1565b9150611de8836115c1565b9250828201905080821115611e0057611dff6119d9565b5b92915050565b7f4964206973206e6f7420636f7272656374000000000000000000000000000000600082015250565b6000611e3c601183611243565b9150611e4782611e06565b602082019050919050565b60006020820190508181036000830152611e6b81611e2f565b9050919050565b611e7b8161152a565b82525050565b6000608082019050611e966000830187611e72565b611ea36020830186611d09565b611eb060408301856117ae565b611ebd60608301846117ae565b9594505050505056fea264697066735822122062b4cdbd64ad21f84a195348b6ce313e918e3f53bcff17b215fcad9e41d0237a64736f6c63430008110033",
  "linkReferences": {},
  "deployedLinkReferences": {}
}